:100000000C943F000C949D000C9469000C946700C4
:100010000C9467000C9467000C9467000C946700C4
:100020000C9467000C9467000C9467000C946700B4
:100030000C9467000C9467000C9467000C946700A4
:100040000C9467000C9467000C9467000C94670094
:100050000C9467000C9467000C9467000C94670084
:100060000C9467000C9467000C9467000C94670074
:100070000C9467000C9467000C94670085051124AC
:100080001FBECFEFD8E0DEBFCDBF11E0A0E0B1E0F2
:10009000E8EFFDE002C005900D92A633B107D9F755
:1000A00021E0A6E3B1E001C01D92A934B207E1F757
:1000B00010E0CFE3D0E004C02197FE010E94950537
:1000C000CE33D107C9F70E9461050C94FA060C944F
:1000D00000001F920F920FB60F9211242F933F939F
:1000E0004F935F936F937F938F939F93AF93BF9340
:1000F000EF93FF9384E190E00E946F018EE391E023
:100100000E94B102811108C0809138018F5F8093F5
:10011000380181E080930001FF91EF91BF91AF9191
:100120009F918F917F916F915F914F913F912F910F
:100130000F900FBE0F901F9018951F920F920FB641
:100140000F9211242F933F934F935F936F937F935D
:100150008F939F93AF93BF93EF93FF9384E190E0CE
:100160000E946F0189E391E00E94B102882319F097
:1001700081E080933701FF91EF91BF91AF919F9103
:100180008F917F916F915F914F913F912F910F9040
:100190000FBE0F901F901895CF93DF93EC0102963E
:1001A0000E948703CE0103960E94D201CE010996D8
:1001B0000E948B011982DF91CF910895FC01608329
:1001C00061830895FC0121812230A1F038F42223BB
:1001D00061F06CE071E0213051F00895233069F056
:1001E00061E371E0243019F0089561E071E009964F
:1001F0000C94B00163E171E0FACF64E271E0F7CFF3
:1002000080ED97E00C946F01FC018181813071F0E9
:1002100028F0823081F0833099F008958081813018
:1002200019F081E08183089584E0FCCF80818230E1
:10023000D9F382E0F7CF80818330B1F383E0F2CF4E
:100240008081882389F311820895FC0161830895D8
:10025000FC0185850895089508950895089521E085
:10026000FC01258702960C940404FC01613069F0BE
:1002700028F0623071F0633081F008958081813020
:1002800039F0CF0102960C941B0480818230C9F7AB
:10029000089580818330E1F3F4CF80818823C1F316
:1002A000F0CFFC012181223091F030F4222349F07B
:1002B00061E0213069F00895233061F0243061F06D
:1002C00008952081213051F002960C941B0462E0C5
:1002D0000C94350163E0FCCF0C942F01089530E0BD
:1002E00020E02817390749F0EFECF7E03197F1F7F4
:1002F00000C000002F5F3F4FF4CF089530E020E0B2
:100300002817390739F042E04A95F1F700C02F5F0E
:100310003F4FF6CF089528E230E0FC01318320837F
:1003200027E230E03383228368E270E087E290E0E6
:100330000C940605FC01518340837383628368E259
:1003400070E087E290E00C94060568E270E087E2D6
:1003500090E00C940605FC01808191810C94B3041B
:10036000EF92FF920F931F93CF93DF937C01EB01EA
:100370000E94AB01FE0101900020E9F78F010150BE
:100380001109C017D10739F0F70160817181899196
:100390000E940005F6CFDF91CF911F910F91FF9042
:1003A000EF900895FC0181E08483158284B183601D
:1003B00084B984E290E09383828385E290E0918324
:1003C00080830895FC0181E08483158271836083BA
:1003D00053834283FA018081836080830895FC0106
:1003E0006130F9F018F0623089F10895A081B1818F
:1003F0004C91848121E030E0B90102C0660F771F83
:100400008A95E2F7CB01809584238C93A081B181FA
:100410008C91958101C0220F9A95EAF7282B2C9395
:100420000895A081B1814C91858121E030E0B9012E
:1004300002C0660F771F8A95E2F7CB01809584236F
:100440008C93A081B1818C919481E4CFA081B18102
:100450004C91858121E030E0B90102C0660F771F21
:100460008A95E2F7CB01948101C0220F9A95EAF7B1
:10047000822B809584238C9308950F931F93CF93A1
:10048000DF93EC01CA016130D9F140F0623009F428
:100490004CC0DF91CF911F910F910895E881F981B0
:1004A00040812C8101E010E0B80102C0660F771F87
:1004B0002A95E2F79B01209524232083E881F98186
:1004C00020813D81A80101C0440F3A95EAF7242B11
:1004D00020830E946F01E881F98120818D81D801FC
:1004E00002C0AA0FBB1F8A95E2F7CD019C8101C013
:1004F000000F9A95EAF7802B809582238083C9CFDD
:10050000E881F98140812D8101E010E0B80102C04D
:10051000660F771F2A95E2F79B01209524232083FD
:10052000E881F98120813C81CDCFE881F98160812A
:100530002D8141E050E0DA0102C0AA0FBB1F2A95CD
:10054000E2F79D013C8101C0440F3A95EAF7242B64
:10055000209526232083DF91CF911F910F910C943A
:100560006F01FC01A381B4819C912281892F90E0CD
:1005700002C0959587952A95E2F781700895FC0150
:100580006130E1F018F0623089F1089582E08283F1
:1005900089E290E09483838332812AB181E090E004
:1005A00002C0880F991F3A95E2F7809590958223B3
:1005B0008AB9118281E08083E89A089533E032831A
:1005C00089E290E09483838342812AB181E090E0C4
:1005D00002C0880F991F4A95E2F780959095822373
:1005E0008AB982E081833083E99A0895628383E245
:1005F00090E094838383328124B181E090E002C053
:10060000880F991F3A95E2F780959095822384B9D7
:1006100084E0818385E08083EA9A0895FC0161305B
:10062000C1F028F0623099F0633021F00895109203
:100630006900089591818091690021E030E001C056
:10064000220F9A95EAF7822B809369000895908192
:10065000F2CF91818091690021E030E0A90101C0D1
:10066000440F9A95EAF7842B8093690090818091DA
:10067000690001C0220F9A95EAF7282B20936900A0
:1006800008951F93CF93DF93EC01142FF8940E94E9
:10069000BF02612FCE010E940E037894DF91CF91AB
:1006A0001F91089581B1837881B90E9A0895029BB4
:1006B00004C081E0FB0180830895FB01108208954E
:1006C00080B182FD14C0887191F080918800909172
:1006D00089000596909389008093880080918A0014
:1006E00090918B00059790938B0080938A000895DA
:1006F000109289001092880010928B0010928A004C
:1007000010928000109281001092820008950E9441
:1007100052038AB1806F8AB90895109289001092AD
:10072000880010928B0010928A0010928000109224
:10073000810010928200089550E050938900409308
:10074000880070E070938B0060938A00E0E8F0E02E
:100750008081816A8083E1E8F0E08081826080832B
:100760001092820008952BB12F732BB9462F0C9451
:100770009C03CF93DF93EA012BB12F732BB90E9417
:10078000B303CE010E946F01DF91CF910C947803E7
:100790000F931F93CF93DF931F92CDB7DEB78C01DA
:1007A00019820E94B3038981811110C0BE016F5F5D
:1007B0007F4FC8010E945703C8010E9460038FE168
:1007C0009EE40197F1F700C00000EDCF0E9478038E
:1007D0000F90DF91CF911F910F9108952BB1206C55
:1007E0002BB9462F0C949C03CF93DF93EA012BB1D6
:1007F000206C2BB9462F0E949C03CE010E946F01F2
:10080000DF91CF910C947803CF93DF93EC010E949A
:1008100078034CEC60E0CE010E949C032FEF89E648
:1008200098E1215080409040E1F700C00000DF9146
:10083000CF910C947803CF93DF93EC010E9478035F
:1008400040E06CECCE010E949C032FEF89E698E11A
:10085000215080409040E1F700C00000DF91CF912F
:100860000C947803CF92DF92EF92FF92CF93DF93B5
:10087000EC016A017B010E94780320E030E044EB48
:1008800052E4C701B6010E949B052DEC3CEC4CE400
:100890005FE30E948D0620E030E04FE753E40E94C2
:1008A0008D060E940D0640E0CE010E949C032FEFB2
:1008B00089E698E1215080409040E1F700C00000B7
:1008C000DF91CF91FF90EF90DF90CF900C94780361
:1008D000FC0180818062808384E08A95F1F78081C9
:1008E0008F7D80830895DF92EF92FF920F931F9385
:1008F000CF93DF93D42E8901C62FD0E090E8899F53
:1009000070011124F9018081817280832081CE01E0
:1009100034E0959587953A95E1F7880F991F8E29D0
:10092000822B8083C8010E946804F8018081817253
:1009300080836081CC0FDD1FCE71CE29C62BC08392
:10094000C8010E94680480E0FAE1FA95F1F700C05E
:100950008F5FD812F9CFDF91CF911F910F91FF9048
:10096000EF90DF9008959C0144EA61E080E00C94F0
:1009700073049C0144EA62E080E00C9473049A01E1
:10098000880F6460682B44E080E00C947304660F69
:100990004860642B44E0849FC0011124682B44E02C
:1009A00080E00C9473049A0144E0649FB001112428
:1009B000606148E0849FC0011124682B44E080E01E
:1009C0000C9473049A0148E0649FB00111246062A2
:1009D00040E1849FC0011124682B44E080E00C9426
:1009E00073049B018F77682F606444E080E00C946F
:1009F00073049B01682F606844E080E00C947304EA
:100A00009B0144E0682F81E00C947304CF93DF9343
:100A1000FC01EB018FE295E70197F1F700C00000C0
:100A200080818172808380818FEF80838881817251
:100A3000888388818660888388818E7F8883CB01C4
:100A40000E94680487E090E20197F1F700C000007F
:100A5000CE010E94680487EC90E00197F1F700C096
:100A60000000CE010E9468049AE69A95F1F700C052
:100A7000888181728883888184608883CE010E9406
:100A800068048AE68A95F1F700C09E0144E06CE2B2
:100A900080E00E9473049E0140E060E080E00E94DC
:100AA000C704CE010E94B304AE0160E081E00E9461
:100AB000BF049E0140E060E081E0DF91CF910C94A3
:100AC000C704CF93DF93CDB7DEB760970FB6F89426
:100AD000DEBF0FBECDBFCE0101960E94CC00CE017D
:100AE00040960E948703CE010F960E94520340E079
:100AF00050E064E372E4CE0140960E9432046FE756
:100B0000CE0140960E94C803FFCF83E491E00E948B
:100B1000D20142E061E08EE391E00E94410341E0B6
:100B200060E089E391E00C944103EE0FFF1F059014
:100B3000F491E02D09940E94AF050C9453060E9495
:100B40004C0658F00E94450640F029F45F3F29F01A
:100B50000C943C0651110C9487060C9442060E949A
:100B6000640668F39923B1F3552391F3951B550B54
:100B7000BB27AA2762177307840738F09F5F5F4F70
:100B8000220F331F441FAA1FA9F335D00E2E3AF0AF
:100B9000E0E832D091505040E695001CCAF72BD0C7
:100BA000FE2F29D0660F771F881FBB1F2617370718
:100BB0004807AB07B0E809F0BB0B802DBF01FF274A
:100BC00093585F4F3AF09E3F510578F00C943C06E5
:100BD0000C9487065F3FE4F3983ED4F386957795AF
:100BE0006795B795F7959F5FC9F7880F911D969503
:100BF000879597F90895E1E0660F771F881FBB1F5F
:100C0000621773078407BA0720F0621B730B840B0B
:100C1000BA0BEE1F88F7E09508950E946C0688F0E5
:100C20009F5798F0B92F9927B751B0F0E1F0660FB0
:100C3000771F881F991F1AF0BA95C9F714C0B130F1
:100C400091F00E948606B1E008950C948606672F05
:100C5000782F8827B85F39F0B93FCCF38695779520
:100C60006795B395D9F73EF4909580957095619509
:100C70007F4F8F4F9F4F089597F99F6780E870E0EF
:100C800060E008959FEF80EC089500240A94161602
:100C9000170618060906089500240A94121613066A
:100CA000140605060895092E0394000C11F48823F8
:100CB00052F0BB0F40F4BF2B11F460FF04C06F5F14
:100CC0007F4F8F4F9F4F089557FD9058440F551FEA
:100CD00059F05F3F71F04795880F97FB991F61F0BE
:100CE0009F3F79F087950895121613061406551F35
:100CF000F2CF4695F1DF08C0161617061806991FA1
:100D0000F1CF86957105610508940895E894BB2795
:100D100066277727CB0197F908950E94A0060C94C7
:100D200053060E94450638F00E944C0620F0952399
:100D300011F00C943C060C94420611240C94870686
:100D40000E94640670F3959FC1F3950F50E0551F04
:100D5000629FF001729FBB27F00DB11D639FAA2710
:100D6000F00DB11DAA1F649F6627B00DA11D661F5F
:100D7000829F2227B00DA11D621F739FB00DA11D80
:100D8000621F839FA00D611D221F749F3327A00D3A
:100D9000611D231F849F600D211D822F762F6A2FD6
:100DA00011249F5750409AF0F1F088234AF0EE0F3B
:100DB000FF1FBB1F661F771F881F91505040A9F768
:100DC0009E3F510580F00C943C060C9487065F3FD3
:100DD000E4F3983ED4F3869577956795B795F795A4
:100DE000E7959F5FC1F7FE2B880F911D969587951C
:080DF00097F90895F894FFCF74
:100DF800014C4520434F554C4F4952004C45204D1E
:100E08005552004C4553204445555820424F5543B0
:100E18004C4553004C455320434F5550555245536C
:060E28000046494E0000E7
:00000001FF
