:100000000C943E000C9453000C9453000C94530039
:100010000C9453000C9453000C9453000C94530014
:100020000C9453000C9453000C9453000C94530004
:100030000C9453000C9453000C9453000C945300F4
:100040000C9453000C9453000C9453000C945300E4
:100050000C9453000C9453000C9453000C945300D4
:100060000C9453000C9453000C9453000C945300C4
:100070000C9453000C9453000C94530011241FBE95
:10008000CFEFD8E0DEBFCDBF11E0A0E0B1E0E8E304
:10009000F5E002C005900D92A230B107D9F70E9499
:1000A0003A020C949A020C940000089580EA80931E
:1000B00000011092B90080E28093B800089520E812
:1000C000FC0120830C945600982F9370891305C06F
:1000D000880F806A8093000108958FEF089594EA55
:1000E00024E89093BC008091BC0087FFFCCF8091F6
:1000F00000018093BB002093BC008091BC0087FF6F
:10010000FCCF8091B900883161F784EA8093BC000C
:100110008091BC0087FFFCCF809100018093BB00E1
:1001200084E88093BC008091BC0087FFFCCF709373
:10013000BB0084E88093BC008091BC0087FFFCCFAB
:100140006093BB0084E88093BC008091BC0087FF73
:10015000FCCF8091BC0087FFFCCF84EA8093BC0079
:100160008091BC0087FFFCCF809100018F5F80935E
:10017000BB0084E88093BC008091BC0087FFFCCF6B
:1001800084E88093BC008091BC0087FFFCCF809105
:10019000BB00FA01808384E98093BC0080E008956D
:1001A00094EA34E89093BC008091BC0087FFFCCFB8
:1001B000809100018093BB003093BC008091BC0013
:1001C00087FFFCCF8091B900883161F784EA809382
:1001D000BC008091BC0087FFFCCF80910001809320
:1001E000BB0084E88093BC008091BC0087FFFCCFFB
:1001F0007093BB0084E88093BC008091BC0087FFB3
:10020000FCCF6093BB0084E88093BC008091BC006D
:1002100087FFFCCF84EA8093BC008091BC0087FFFD
:10022000FCCF809100018F5F8093BB0084E88093B6
:10023000BC008091BC0087FFFCCFFA0184EC222334
:1002400071F0213009F484E88093BC009091BC00E7
:1002500097FFFCCF9091BB0091932150F0CF84E9A0
:100260008093BC0080E0089594EA24E89093BC0059
:100270008091BC0087FFFCCF809100018093BB0080
:100280002093BC008091BC0087FFFCCF8091B90017
:10029000883161F784EA8093BC008091BC0087FFBD
:1002A000FCCF809100018093BB0084E88093BC0068
:1002B0008091BC0087FFFCCF7093BB0084E88093E3
:1002C000BC008091BC0087FFFCCF6093BB0084E83A
:1002D0008093BC008091BC0087FFFCCF4093BB00A3
:1002E00084E88093BC008091BC0087FFFCCF84E948
:1002F0008093BC0080E00895260F372F311DFC014C
:1003000080818150990B862B972B2817390718F07D
:100310009C012F5F3F4F822F861B24EA34E82093F5
:10032000BC009091BC0097FFFCCF9091000190938E
:10033000BB003093BC009091BC0097FFFCCF909124
:10034000B900983161F794EA9093BC009091BC0099
:1003500097FFFCCF909100019093BB0094E890939D
:10036000BC009091BC0097FFFCCF7093BB0094E859
:100370009093BC009091BC0097FFFCCF6093BB00B2
:1003800094E89093BC009091BC0097FFFCCFFA01D9
:10039000982F24E8992359F031913093BB00209392
:1003A000BC003091BC0037FFFCCF9150F3CF94E9F3
:1003B0009093BC000895CF92DF92EF92FF920F933B
:1003C0001F93CF936C017B018A01C22F2C2FA801B0
:1003D000B701C6010E947C01282F30E0E20EF31E17
:1003E000C81B020F131FC111F1CF80E0CF911F91E5
:1003F0000F91FF90EF90DF90CF90089530E020E0D4
:100400002817390749F0EFECF7E03197F1F700C012
:1004100000002F5F3F4FF4CF089530E020E0281711
:10042000390739F042E04A95F1F700C02F5F3F4F9E
:10043000F6CF08958091C00085FFFCCF6093C60081
:1004400008958091C00087FFFCCF8091C600089579
:100450001092C5008FEC8093C400E1ECF0E0808145
:1004600088618083E2ECF0E080818660808308957B
:100470000C942802CF92DF92EF92FF920F931F937A
:10048000CF93DF9300D0CDB7DEB7CE0102960E94A6
:100490003802CE0101960E945F00CE0102960E94B2
:1004A0002102082FCE0102960E942102080F402F40
:1004B00070E060E0CE0101960E94340185E090E09A
:1004C0000E94FE0161E0CE0102960E941A02F12C08
:1004D000E12CCC24C394D12C10E00E151F05C8F0DC
:1004E00082E0E816F10488F0CE0102960E94210213
:1004F000482FB601CE0101960E94340185E090E0BC
:100500000E94FE018FEFC81AD80A8FEFE81AF80A86
:10051000E4CFCE0101960E94550081E090E00F905B
:100520000F90DF91CF911F910F91FF90EF90DF908F
:08053000CF900895F894FFCF6D
:02053800A00021
:00000001FF
