:100000000C943F000C9467000C9467000C946700FC
:100010000C9467000C9467000C9467000C946700C4
:100020000C9467000C9467000C9467000C946700B4
:100030000C9467000C9467000C9467000C946700A4
:100040000C9467000C9467000C9467000C94670094
:100050000C9467000C9467000C9467000C94670084
:100060000C9467000C9467000C9467000C94670074
:100070000C9467000C9467000C9467003C061124F4
:100080001FBECFEFD8E0DEBFCDBF11E0A0E0B1E0F2
:10009000E8E2F0E102C005900D92A639B107D9F768
:1000A00021E0A6E9B1E001C01D92AC39B207E1F749
:1000B00010E0CFE3D0E004C02197FE010E9440068B
:1000C000CE33D107C9F70E94E9050C9412080C94AD
:1000D00000006CE271E08DE20E948B036CE271E043
:1000E00082E20E948B036CE271E081E40E948B0348
:1000F0006CE271E08CE40E948B030E94DA034AEF09
:1001000050E061E086E991E00E9447044AEF50E048
:1001100062E086E991E00E9447044AEF50E061E026
:1001200086E991E00E9447044AEF50E062E086E9E8
:1001300091E00E9447044AEF50E060E086E991E0D8
:100140000E9447044AEF50E062E086E991E00E9495
:1001500047044AEF50E060E086E991E00C944704E0
:1001600047E066E970E087E40E94C30347E066E980
:1001700070E080E40E94C30346E066E970E08EE32D
:100180000E94C30342E066E970E085E40E94C30375
:1001900045E066E970E087E40E94C30347E066E952
:1001A00070E087E40E94C30343E066E970E080E406
:1001B0000E94C3034BE066E970E087E40E94C3033A
:1001C00042E066E970E080E40E94C3034CE066E927
:1001D00070E087E40E94C30347E066E970E080E4D2
:1001E0000E94C30347E066E970E08EE30E94C30308
:1001F00042E066E970E085E40E94C3034CE066E9F2
:1002000070E087E40E94C30342E066E970E080E4A6
:100210000E94C3034CE066E970E087E40E94C303D8
:1002200042E066E970E080E40E94C30342E066E9D0
:1002300070E087E40C94C303FF920F931F93CF9356
:10024000DF9300D0CDB7DEB78C01F62E0E94690097
:1002500081E08F1560F422E0AE014F5F5F4F61E0F7
:1002600070E0C8010E94CD018981813089F781E069
:100270000F900F90DF91CF911F910F91FF900895F4
:10028000CF93DF931F92CDB7DEB71982AE014F5FD8
:100290005F4F70E060E00E946C0189810F90DF91F8
:1002A000CF910895089580EA809300011092B900DB
:1002B00080E28093B800089520E8FC0120830C942C
:1002C0005301982F9370891305C0880F806A80931B
:1002D000000108958FEF089594EA24E89093BC00FC
:1002E0008091BC0087FFFCCF809100018093BB0010
:1002F0002093BC008091BC0087FFFCCF8091B900A7
:10030000883161F784EA8093BC008091BC0087FF4C
:10031000FCCF809100018093BB0084E88093BC00F7
:100320008091BC0087FFFCCF7093BB0084E8809372
:10033000BC008091BC0087FFFCCF6093BB0084E8C9
:100340008093BC008091BC0087FFFCCF8091BC00F3
:1003500087FFFCCF84EA8093BC008091BC0087FFBC
:10036000FCCF809100018F5F8093BB0084E8809375
:10037000BC008091BC0087FFFCCF84E88093BC0068
:100380008091BC0087FFFCCF8091BB00FA01808385
:1003900084E98093BC0080E0089594EA34E8909367
:1003A000BC008091BC0087FFFCCF8091000180934E
:1003B000BB003093BC008091BC0087FFFCCF8091D4
:1003C000B900883161F784EA8093BC008091BC0059
:1003D00087FFFCCF809100018093BB0084E880936D
:1003E000BC008091BC0087FFFCCF7093BB0084E809
:1003F0008093BC008091BC0087FFFCCF6093BB0062
:1004000084E88093BC008091BC0087FFFCCF84EA25
:100410008093BC008091BC0087FFFCCF80910001DD
:100420008F5F8093BB0084E88093BC008091BC0008
:1004300087FFFCCFFA0184EC222371F0213009F40C
:1004400084E88093BC009091BC0097FFFCCF909112
:10045000BB0091932150F0CF84E98093BC0080E0F1
:10046000089594EA24E89093BC008091BC0087FF33
:10047000FCCF809100018093BB002093BC00809151
:10048000BC0087FFFCCF8091B900883161F784EA16
:100490008093BC008091BC0087FFFCCF809100015D
:1004A0008093BB0084E88093BC008091BC0087FFF0
:1004B000FCCF7093BB0084E88093BC008091BC00AB
:1004C00087FFFCCF6093BB0084E88093BC008091E1
:1004D000BC0087FFFCCF4093BB0084E88093BC0046
:1004E0008091BC0087FFFCCF84E98093BC0080E052
:1004F0000895260F372F311DFC0180818150990B03
:10050000862B972B2817390718F09C012F5F3F4F38
:10051000822F861B24EA34E82093BC009091BC0013
:1005200097FFFCCF909100019093BB003093BC00EB
:100530009091BC0097FFFCCF9091B900983161F782
:1005400094EA9093BC009091BC0097FFFCCF9091EF
:1005500000019093BB0094E89093BC009091BC0084
:1005600097FFFCCF7093BB0094E89093BC009091F0
:10057000BC0097FFFCCF6093BB0094E89093BC0055
:100580009091BC0097FFFCCFFA01982F24E89923A3
:1005900059F031913093BB002093BC003091BC00E6
:1005A00037FFFCCF9150F3CF94E99093BC000895AE
:1005B000CF92DF92EF92FF920F931F93CF936C0134
:1005C0007B018A01C22F2C2FA801B701C6010E940E
:1005D0007902282F30E0E20EF31EC81B020F131F12
:1005E000C111F1CF80E0CF911F910F91FF90EF905B
:1005F000DF90CF900895CF93DF93EC010E94DC034E
:10060000CE0106960E94CA041D86DF91CF910895FF
:10061000FC0181850895FC0161870895FC01623623
:1006200078F46036A0F5643429F128F46230E1F002
:10063000693059F10895653409F1683409F1089574
:10064000653671F130F40696633639F118F10C9481
:100650004705613C41F16F3F71F1603C71F54F5FBF
:10066000448781858387089529E1429FC001112431
:100670000C946F0361E0CF010C94F90362E0FBCFAF
:100680006CE271E0842F0C948B030C94DA030696D1
:100690000C94D004642F0C94F604642F0C94310550
:1006A00006960C945E05848581508487882329F002
:1006B00083858187089581E085870895CF93DF93AF
:1006C000EC01FB01418160810E940E0389858E5FF0
:1006D0008987DF91CF910895FC018585089530E0E9
:1006E00020E02817390749F0EFECF7E03197F1F7F0
:1006F00000C000002F5F3F4FF4CF089530E020E0AE
:100700002817390739F042E04A95F1F700C02F5F0A
:100710003F4FF6CF0895CF93DF93E82FEB0183EDA2
:100720008E0F853268F5ED52FF0BEE0FFF1FEE0FB7
:10073000FF1FEF5FFE4F20E030E040E054E46081B7
:100740007181828193810E94A5079B01AC0160E0C9
:1007500074E284EF9AE40E94B30620E030E040E8BF
:100760005FE30E9446060E942507862F65E00E94EF
:10077000AB05CE010E946F03DF91CF910C94BE05B3
:10078000DF91CF910895FF920F931F93CF93DF9343
:10079000D82F8B01F42EC0E0CF1531F0B8018D2F8A
:1007A0000E948B03CF5FF8CFDF91CF911F910F9104
:1007B000FF9008950C94BE05FC0181E084831582AE
:1007C00084B1836084B984E290E09383828385E27C
:1007D00090E0918380830895FC0181E084831582F9
:1007E0007183608353834283FA01808183608083B5
:1007F0000895FC016130F9F018F0623089F1089534
:10080000A081B1814C91848121E030E0B90102C026
:10081000660F771F8A95E2F7CB01809584238C932E
:10082000A081B1818C91958101C0220F9A95EAF740
:10083000282B2C930895A081B1814C91858121E0D2
:1008400030E0B90102C0660F771F8A95E2F7CB014D
:10085000809584238C93A081B1818C919481E4CF85
:10086000A081B1814C91858121E030E0B90102C0C5
:10087000660F771F8A95E2F7CB01948101C0220FA2
:100880009A95EAF7822B809584238C9308950F9391
:100890001F93CF93DF93EC01CA016130D9F140F08F
:1008A000623009F44CC0DF91CF911F910F910895F0
:1008B000E881F98140812C8101E010E0B80102C09B
:1008C000660F771F2A95E2F79B012095242320834A
:1008D000E881F98120813D81A80101C0440F3A954A
:1008E000EAF7242B20830E946F03E881F98120819D
:1008F0008D81D80102C0AA0FBB1F8A95E2F7CD01F6
:100900009C8101C0000F9A95EAF7802B8095822385
:100910008083C9CFE881F98140812D8101E010E019
:10092000B80102C0660F771F2A95E2F79B01209558
:1009300024232083E881F98120813C81CDCFE88187
:10094000F98160812D8141E050E0DA0102C0AA0FF7
:10095000BB1F2A95E2F79D013C8101C0440F3A95E7
:10096000EAF7242B209526232083DF91CF911F9136
:100970000F910C946F0310928900109288001092CE
:100980008B0010928A0010928000109281001092C9
:10099000820008950E94C3058AB1806F8AB90895C4
:1009A000109289001092880010928B0010928A0099
:1009B000109280001092810010928200089550E001
:1009C000509389004093880070E070938B0060938F
:1009D0008A00E0E8F0E08081816A8083E1E8F0E06D
:1009E0008081826080831092820008952BB12F73E2
:1009F0002BB9462F0C94DF04CF93DF93EA012BB180
:100A00002F732BB90E94F604CE010E946F03DF9171
:100A1000CF910C94BB040F931F93CF93DF931F923E
:100A2000CDB7DEB78C0119820E94F604898181114D
:100A300010C0BE016F5F7F4FC8010E94C805C8018A
:100A40000E94D1058FE19EE40197F1F700C00000FC
:100A5000EDCF0E94BB040F90DF91CF911F910F91BA
:100A600008952BB1206C2BB9462F0C94DF04CF9343
:100A7000DF93EA012BB1206C2BB9462F0E94DF04D3
:100A8000CE010E946F03DF91CF910C94BB04CF93F2
:100A9000DF93EC010E94BB044CEC60E0CE010E94AD
:100AA000DF042FEF89E698E1215080409040E1F784
:100AB00000C00000DF91CF910C94BB04CF93DF9373
:100AC000EC010E94BB0440E06CECCE010E94DF040C
:100AD0002FEF89E698E1215080409040E1F700C077
:100AE0000000DF91CF910C94BB04CF92DF92EF9284
:100AF000FF92CF93DF93EC016A017B010E94BB045C
:100B000020E030E044EB52E4C701B6010E94B30696
:100B10002DEC3CEC4CE45FE30E94A50720E030E0C4
:100B20004FE753E40E94A5070E94250740E0CE014D
:100B30000E94DF042FEF89E698E121508040904029
:100B4000E1F700C00000DF91CF91FF90EF90DF90C0
:100B5000CF900C94BB0494B121E030E001C0220F8F
:100B60006A95EAF79860922B94B916BC87BD84B554
:100B7000826484BD85B5846085BD089514BC15BCB0
:100B800017BC0895089581B1837881B90E9A0895AC
:100B9000029B04C081E0FB0180830895FB01108269
:100BA000089580B182FD14C0887191F08091880011
:100BB0009091890005969093890080938800809198
:100BC0008A0090918B00059790938B0080938A0008
:100BD00008950F931F93CF93DF93CDB7DEB761973F
:100BE0000FB6F894DEBF0FBECDBFCE0141960E9476
:100BF0005C01CE0101960E94FB02CE0141960E944B
:100C00004001082F682FCE0141960E941C01682FD9
:100C1000CE0101960E940B03CE0101960E940803AB
:100C2000182F8017C0F4CE0101960E946C03811129
:100C300012C0612F70E022E0AE01415F5F4FCE0134
:100C400041960E94CD01BE01615F7F4FCE010196AA
:100C50000E945E03E1CFCE0141960E94520181E0E5
:100C600090E061960FB6F894DEBF0FBECDBFDF9166
:100C7000CF911F910F91089586E991E00C94DC03C8
:100C8000EE0FFF1F0590F491E02D09945058BB27FB
:100C9000AA270E945E060C946B070E945D0738F03D
:100CA0000E94640720F039F49F3F19F426F40C9455
:100CB0005A070EF4E095E7FB0C945407E92F0E94C5
:100CC0007C0758F3BA17620773078407950720F06B
:100CD00079F4A6F50C949E070EF4E0950B2EBA2F2E
:100CE000A02D0B01B90190010C01CA01A001112432
:100CF000FF27591B99F0593F50F4503E68F11A16DE
:100D0000F040A22F232F342F4427585FF3CF46956E
:100D100037952795A795F0405395C9F77EF41F1690
:100D2000BA0B620B730B840BBAF09150A1F0FF0F5A
:100D3000BB1F661F771F881FC2F70EC0BA0F621F46
:100D4000731F841F48F4879577956795B795F79536
:100D50009E3F08F0B0CF9395880F08F09927EE0FCB
:100D60009795879508950E94C7060C946B070E947B
:100D7000640758F00E945D0740F029F45F3F29F0B6
:100D80000C94540751110C949F070C945A070E941D
:100D90007C0768F39923B1F3552391F3951B550B09
:100DA000BB27AA2762177307840738F09F5F5F4F3E
:100DB000220F331F441FAA1FA9F335D00E2E3AF07D
:100DC000E0E832D091505040E695001CCAF72BD095
:100DD000FE2F29D0660F771F881FBB1F26173707E6
:100DE0004807AB07B0E809F0BB0B802DBF01FF2718
:100DF00093585F4F3AF09E3F510578F00C9454079A
:100E00000C949F075F3FE4F3983ED4F38695779563
:100E10006795B795F7959F5FC9F7880F911D9695D0
:100E2000879597F90895E1E0660F771F881FBB1F2C
:100E3000621773078407BA0720F0621B730B840BD9
:100E4000BA0BEE1F88F7E09508950E94840788F09A
:100E50009F5798F0B92F9927B751B0F0E1F0660F7E
:100E6000771F881F991F1AF0BA95C9F714C0B130BF
:100E700091F00E949E07B1E008950C949E07672FA1
:100E8000782F8827B85F39F0B93FCCF386957795EE
:100E90006795B395D9F73EF49095809570956195D7
:100EA0007F4F8F4F9F4F089597F99F6780E870E0BD
:100EB00060E008959FEF80EC089500240A941616D0
:100EC000170618060906089500240A941216130638
:100ED000140605060895092E0394000C11F48823C6
:100EE00052F0BB0F40F4BF2B11F460FF04C06F5FE2
:100EF0007F4F8F4F9F4F089557FD9058440F551FB8
:100F000059F05F3F71F04795880F97FB991F61F08B
:100F10009F3F79F087950895121613061406551F02
:100F2000F2CF4695F1DF08C0161617061806991F6E
:100F3000F1CF86957105610508940895E894BB2763
:100F400066277727CB0197F908950E94B8070C947C
:100F50006B070E945D0738F00E94640720F095231C
:100F600011F00C9454070C945A0711240C949F0709
:100F70000E947C0770F3959FC1F3950F50E0551FB9
:100F8000629FF001729FBB27F00DB11D639FAA27DE
:100F9000F00DB11DAA1F649F6627B00DA11D661F2D
:100FA000829F2227B00DA11D621F739FB00DA11D4E
:100FB000621F839FA00D611D221F749F3327A00D08
:100FC000611D231F849F600D211D822F762F6A2FA4
:100FD00011249F5750409AF0F1F088234AF0EE0F09
:100FE000FF1FBB1F661F771F881F91505040A9F736
:100FF0009E3F510580F00C9454070C949F075F3F6F
:10100000E4F3983ED4F3869577956795B795F79571
:10101000E7959F5FC1F7FE2B880F911D96958795E9
:0810200097F90895F894FFCF41
:10102800A00000DC42F614E94210F1F64213D002A7
:101038004360970A4317D5124341901B4354D02469
:1010480043379D2E4349FF38436AFF434300A74F68
:101058004300005C43F614694310F1764313D082D1
:101068004360978A4317D5924341909B4354D0A439
:1010780043379DAE4349FFB8436AFFC34300A7CF38
:10108800430000DC43F614E94310F1F64313D002A1
:101098004460970A4417D5124441901B4454D02405
:1010A80044379D2E4449FF38446AFF434400A74F04
:0610B8004400005C44004E
:00000001FF
